:020000020000FC
:020000007FC0BF
:020004002AC010
:100008004AC0000101010202030506090D11161D6F
:10001800242D000001010101010102020202030373
:100028000505060607090B0D0F111316191D2024C7
:10003800282D070707070404040401070305000621
:100048000204FF0FFF0FFF0F1FFF1F1F1FFFFF0FF0
:10005800FFFF4B9909C01AB957B84A99FECF77B82C
:100068007AB8F1E0BCBA1895E6B1EF734F990AC0B7
:10007800F09904C0F1E050A010A9F3CFF3E050A02C
:1000880010A9EFCFEF3319F0EE3319F0EACFF0985B
:10009800E8CFF09AE6CF46B14F734A9917C059B0E6
:1000A800DFB658204529542E5094F1E01081F0997C
:1000B800F3E050A24123152D107C10AB408BED309E
:1000C80009F43068DFBEF1E0FCBB1895E42F4E99C7
:1000D8000AC0F09904C0F1E050A010A9F4CFF3E0F1
:1000E80050A010A9F0CFEF3319F0EE3319F0EBCF91
:1000F800F098E9CFF09AE7CF00E00093600008EDB0
:100108000093340000E80093610008ED0093340088
:1001180000E00093610008ED0093340004E00093D0
:10012800050108ED0093340007E000930A0108ED8B
:100138000093340000E000930B0108ED00933400B5
:1001480000E000930B0103E0009307010FE7009321
:10015800080100C005B7046005BF0FEF0DBF08E038
:100168000EBF00E007B908B90AB90BB900E8009357
:10017800500000E80FBDF098F198772400EC802E2D
:1001880004E0A02E0FE1202E02E0B02E0FEF502E3B
:10019800182DFF24DFEF20E1E0E1F1E080A2008BE1
:1001A80071922A95D9F7B2E0A0E1EAE3F0E020E104
:1001B800DFD0A0E2EAE0F0E020E1DAD0A0E3EAE173
:1001C800F0E020E2D5D0AA27B1E0EAE4F0E020E1AF
:1001D800CFD020E1E0E1F3E080A2008B71922A9574
:1001E800D9F720E2E0E0F4E071922A95E9F721E0FE
:1001F80020931E04F1E0EE27D2E06F2E7092890062
:100208007092880070928B0070928A00219A229ACC
:1002180002EA0093800009E10093810028E47092CB
:100228008700209386000FE00093690003E00CBB71
:1002380003E00DBBE0E13327002444241124282DDA
:10024800992444273324CC247894C6B3C0FFFDCF27
:10025800C6BBF1993CC0F19A88D0F7CF3A946AF4BA
:10026800309016013A9466946E2CF794E7943863AC
:10027800E0FE377C660C6E24669400911701032B10
:10028800C02FCC0FC2950C23C09118010C2CC4FFB1
:1002980008A000FF0024C09119014C2CC4FF48A0FD
:1002A80001FF4424C0911A011C2CC4FF18A002FFAE
:1002B8001124C42D46944694C4194694C4190C0EAE
:1002C8001C0E52D000922004109221043CC0F198D8
:1002D8004ED03A946AF4309016033A9466946E2C91
:1002E800F794E7943863E0FE377C660C6E246694D6
:1002F800D4E2C0E100911703032BC02FCC0FC295A5
:100308000C23C09118030C2CC4FF08A000FF002484
:10031800C09119034C2CC4FF48A001FF4424C0918C
:100328001A031C2CC4FF18A002FF1124C42D4694E4
:100338004694C4194694C4190C0E1C0E009222044B
:100348001092230413D000912004C0912204C00FFE
:100358000C2E00912104C0912304C00F1C2E009282
:10036800880010928A0071CF08950895089508951D
:0A03780005910D932A95E1F7089511
:00000001FF
