:020000020000FC
:0200000084C0BA
:020004002AC010
:100008004BC0000101010202030405070A0D121882
:10001800222D000001010101010102020202020376
:10002800030404050607080A0B0D0F1215181D22F4
:10003800282D070707070404040401070305000621
:100048000204FF0FFF0FFF0F1FFF1F1F1FFFFF0FF0
:10005800FFFF4B990AC01AB957B84A99FECF77B82B
:100068007AB8F1E042E04CBB1895E6B1EF734F99CE
:100078000AC0F09904C0F1E050A010A9F2CFF3E053
:1000880050A010A9EECFEF3319F0EE3319F0E9CFF5
:10009800F098E7CFF09AE5CF46B14F734A991BC065
:1000A80059B07FB658204529542E5094F1E010815C
:1000B800F099F3E050A24123152D182110AB408B85
:1000C800ED3021F4F09B3068F09900687FBE77240A
:1000D800F1E0FCBB1895E42F4E990AC0F09904C0D2
:1000E800F1E050A010A9F4CFF3E050A010A9F0CF90
:1000F800EF3319F0EE3319F0EBCFF098E9CFF09A1F
:10010800E7CFF89400E00093600008ED0093340016
:1001180000E80093610008ED0093340000E00093CC
:10012800610008ED0093340004E00093050100EE3F
:10013800009366000FEF0A95F1F703E000930701BB
:100148000FE70093080100E80093200000C005B7FE
:10015800046005BF0FEF0DBF08E00EBF00E8009375
:10016800500000E80FBDF098F198772400EC802E3D
:1001780001E2D02E0FEF502E182DFF24DFEF20E1E3
:10018800E0E1F1E080A2008B71922A95D9F7B2E004
:10019800A0E1EAE3F0E020E15ED1A0E2EAE0F0E0ED
:1001A80020E159D1A0E3EAE1F0E020E254D1AA2706
:1001B800B1E0EAE4F0E020E14ED120E1E0E1F3E053
:1001C80080A2008B71922A95D9F720E1E0E6F2E04F
:1001D80071922A95E9F7F1E0EE276F2E7092890067
:1001E8007092880070928B0070928A00219A229AED
:1001F80002EA0093800009E1009381002DEA7092E1
:100208008700209386000FE00093690003E00CBB91
:1002180003E00DBBE0E13327002700244424112428
:100228002224AA24282D782D992466273324AA2746
:10023800BB2788279927CC24BB24D4E0CCE602E04E
:10024800088300E00983D4E21880D2E07894C6B32A
:10025800C0FFFDCFC6BB3A94AAF430901601509166
:10026800160335160CF4352E3A9466946E2CF794D2
:10027800E79438630863E0FE377CE0FE077C660C91
:100288006E24669437FF06C0C0911D0198882FE13F
:100298003F770CC097FC13C001970CF081F42A95A6
:1002A8002AF42FE191FC9F2692FC982880911B014B
:1002B80090911C01C22F5FE190FEC527C8A807FFD7
:1002C80006C0C0911D0368897FE10F770CC067FDE8
:1002D80013C011970CF081F47A952AF47FE161FD3F
:1002E8006F2762FD6829A0911B03B0911C03C72FDB
:1002F8005FE160FFC527B8A8F19B2CC0D1E2C0E63A
:100308000880D0922100019B05C0C0E10880D092EE
:1003180021003F27C0E62882C2E60880D09221004B
:10032800019B06C0C2E10880D092210052E0352727
:10033800C2E62882C4E60880D0922100019B06C04C
:10034800C4E10880D092210054E03527C4E6288211
:10035800F19831C0D1E2C6E60880D0922100019B15
:1003680007C0D3E2C0E10880D09221000F27D1E274
:10037800C6E62882C8E60880D0922100019B08C002
:10038800D3E2C2E10880D092210052E00527D1E2F1
:10039800C8E62882CAE60880D0922100019B08C0DE
:1003A800D3E2C4E10880D092210054E00527D1E2CD
:1003B800CAE62882F19A50911701532BC52FCC0F0A
:1003C800C2955C23D2E0C09118010C2CC4FF08A090
:1003D80050FF0024C09119014C2CC4FF48A051FFC4
:1003E8004424C0911A011C2CC4FF18A052FF1124E8
:1003F800C42D46944694C4194694C4190C0E1C0E78
:1004080050911703502BC52FCC0FC2955C23C09178
:1004180018032B2CC4FF28A050FF2224C0911903D5
:100428004B2CC4FF48A051FF4424C0911A03AB2CA5
:10043800C4FFA8A052FFAA24C42D46944694C41908
:100448004694C4192C0EAC0E020C1A0C00928800AB
:1004580010928A00FCCE05910D932A95E1F7089534
:00000001FF
