:020000020000FC
:0200000084C0BA
:020004002AC010
:100008004BC0000101010202030506090D11161D6E
:10001800242D000001010101010102020202030373
:100028000505060607090B0D0F111316191D2024C7
:10003800282D070707070404040401070305000621
:100048000204FF0FFF0FFF0F1FFF1F1F1FFFFF0FF0
:10005800FFFF4B990AC01AB957B84A99FECF77B82B
:100068007AB8F1E042E04CBB1895E6B1EF734F99CE
:100078000AC0F09904C0F1E050A010A9F2CFF3E053
:1000880050A010A9EECFEF3319F0EE3319F0E9CFF5
:10009800F098E7CFF09AE5CF46B14F734A991BC065
:1000A80059B07FB658204529542E5094F1E010815C
:1000B800F099F3E050A24123152D182110AB408B85
:1000C800ED3021F4F09B3068F09900687FBE77240A
:1000D800F1E0FCBB1895E42F4E990AC0F09904C0D2
:1000E800F1E050A010A9F4CFF3E050A010A9F0CF90
:1000F800EF3319F0EE3319F0EBCFF098E9CFF09A1F
:10010800E7CFF89400E00093600000E80093F20065
:1001180004E20093F20000E10093F00004E0009391
:10012800F00000E80093610000E200936100000025
:1001380000000000000000000000000003E0009341
:1001480007010FE70093080100E80093200000C0B2
:1001580005B7046005BF0FEF0DBF08E00EBF00E054
:1001680007B908B90AB90BB900E80093500000E8CC
:100178000FBDF098F198772400EC802E04E0A02EB3
:1001880001E2D02E0FEF502E182DFF247727DFEF36
:1001980020E1E0E1F1E080A2008B71922A95D9F785
:1001A800B2E0A0E1EAE3F0E020E17FD1A0E2EAE0FA
:1001B800F0E020E17AD1A0E3EAE1F0E020E275D1B5
:1001C800AA27B1E0EAE4F0E020E16FD120E1E0E124
:1001D800F3E080A2008B71922A95D9F720E1E0E63E
:1001E800F2E071922A95E9F7E1E5F2E000E81127DB
:1001F8002227019311932193E4E5F2E001931193EF
:100208002193F1E0EE276F2EBF2E70928900709235
:10021800880070928B0070928A00219A229A02EAD2
:100228000093800009E10093810026EB709287001B
:10023800209386000FE00093690003E00CBB03E005
:100248000DBBE0E133270027002444241124282D86
:10025800992433242224AA27BB2788279927CC242A
:10026800D4E0CCE601E0088300E00983D4E21880FA
:10027800D2E07894C6B3C0FFFDCFC6BBC1E5988075
:100288002981CA8037FF06C0C0911D0198882FE1D7
:100298003F770CC097FC13C0019708F081F42A95AA
:1002A8002AF42FE191FC9F2692FC982880911B014B
:1002B80090911C01C22F5FE190FEC527C8A83A940F
:1002C8006AF4309016013A9466946E2CF794E79489
:1002D8003863E0FE377C660C6E246694D1E2C0E693
:1002E8000880D0922100019B05C0C0E10880D0920F
:1002F80021003F27C0E62882C2E60880D09221006C
:10030800019B06C0C2E10880D092210052E0352747
:10031800C2E62882C4E60880D0922100019B05C06D
:10032800C4E10880D09221003A25C4E62882509181
:100338001701532BC52FCC0FC2955C23D2E0C09177
:1003480018010C2CC4FF08A050FF0024C09119010B
:100358004C2CC4FF48A051FF4424C0911A011C2C06
:10036800C4FF18A052FF1124C42D46944694C41902
:100378004694C4190C0E1C0EC1E598822983CA82C2
:1003880008861986C4E598802981CA8007FF06C0B7
:10039800C0911D0398882FE10F770CC097FC13C0FC
:1003A800119708F081F42A952AF42FE191FC9F26F1
:1003B80092FC9828A0911B03B0911C03C22F5FE107
:1003C80090FEC527C8A82A946AF4209016032A9498
:1003D800B694B62E77956795086360FF077CBB0CCB
:1003E800B626B694D1E2C6E60880D0922100019BD9
:1003F80007C0D3E2C0E10880D09221000F27D1E2E4
:10040800C6E62882C8E60880D0922100019B08C071
:10041800D3E2C2E10880D092210052E00527D1E260
:10042800C8E62882CAE60880D0922100019B07C04E
:10043800D3E2C4E10880D09221000A25D1E2CAE6BD
:10044800288250911703502BC52FCC0FC2955C23DF
:10045800D2E0C09118030C2CC4FF08A050FF002460
:10046800C09119034C2CC4FF48A051FF4424C091EB
:100478001A031C2CC4FF18A052FF1124C42D469443
:100488004694C4194694C4190C0E1C0EC4E59882EF
:100498002983CA8250915902050E50915A02150EAD
:1004A8000092880010928A00E5CE05910D932A9556
:0404B800E1F70895CB
:00000001FF
